{
  "_format": "hh-sol-artifact-1",
  "contractName": "MainPlatform",
  "sourceName": "contracts/MainPlatform.sol",
  "abi": [
    {
      "inputs": [
        {
          "internalType": "address",
          "name": "_owner",
          "type": "address"
        }
      ],
      "stateMutability": "nonpayable",
      "type": "constructor"
    },
    {
      "inputs": [
        {
          "internalType": "string",
          "name": "title",
          "type": "string"
        },
        {
          "internalType": "string[]",
          "name": "labels",
          "type": "string[]"
        }
      ],
      "name": "addQuestion",
      "outputs": [
        {
          "internalType": "uint256",
          "name": "",
          "type": "uint256"
        }
      ],
      "stateMutability": "nonpayable",
      "type": "function"
    },
    {
      "inputs": [
        {
          "internalType": "uint256",
          "name": "questionID",
          "type": "uint256"
        },
        {
          "internalType": "string",
          "name": "newDescription",
          "type": "string"
        }
      ],
      "name": "editDescription",
      "outputs": [],
      "stateMutability": "payable",
      "type": "function"
    },
    {
      "inputs": [
        {
          "internalType": "uint256",
          "name": "questionID",
          "type": "uint256"
        },
        {
          "internalType": "uint256",
          "name": "extraOption",
          "type": "uint256"
        }
      ],
      "name": "extraVote",
      "outputs": [],
      "stateMutability": "nonpayable",
      "type": "function"
    },
    {
      "inputs": [],
      "name": "getPlatformQuestions",
      "outputs": [
        {
          "components": [
            {
              "internalType": "uint256",
              "name": "id",
              "type": "uint256"
            },
            {
              "internalType": "address",
              "name": "owner",
              "type": "address"
            },
            {
              "internalType": "string",
              "name": "title",
              "type": "string"
            },
            {
              "internalType": "string",
              "name": "description",
              "type": "string"
            },
            {
              "internalType": "string[]",
              "name": "labels",
              "type": "string[]"
            },
            {
              "internalType": "uint256[]",
              "name": "scores",
              "type": "uint256[]"
            },
            {
              "internalType": "uint256[3]",
              "name": "extras",
              "type": "uint256[3]"
            },
            {
              "internalType": "uint256",
              "name": "totalVoters",
              "type": "uint256"
            },
            {
              "internalType": "bool",
              "name": "hasVoted",
              "type": "bool"
            }
          ],
          "internalType": "struct QuestionInfo[]",
          "name": "",
          "type": "tuple[]"
        }
      ],
      "stateMutability": "view",
      "type": "function"
    },
    {
      "inputs": [
        {
          "internalType": "uint256",
          "name": "questionID",
          "type": "uint256"
        }
      ],
      "name": "getQuestionInfo",
      "outputs": [
        {
          "components": [
            {
              "internalType": "uint256",
              "name": "id",
              "type": "uint256"
            },
            {
              "internalType": "address",
              "name": "owner",
              "type": "address"
            },
            {
              "internalType": "string",
              "name": "title",
              "type": "string"
            },
            {
              "internalType": "string",
              "name": "description",
              "type": "string"
            },
            {
              "internalType": "string[]",
              "name": "labels",
              "type": "string[]"
            },
            {
              "internalType": "uint256[]",
              "name": "scores",
              "type": "uint256[]"
            },
            {
              "internalType": "uint256[3]",
              "name": "extras",
              "type": "uint256[3]"
            },
            {
              "internalType": "uint256",
              "name": "totalVoters",
              "type": "uint256"
            },
            {
              "internalType": "bool",
              "name": "hasVoted",
              "type": "bool"
            }
          ],
          "internalType": "struct QuestionInfo",
          "name": "",
          "type": "tuple"
        }
      ],
      "stateMutability": "view",
      "type": "function"
    },
    {
      "inputs": [],
      "name": "isRegisteredUser",
      "outputs": [
        {
          "internalType": "bool",
          "name": "",
          "type": "bool"
        }
      ],
      "stateMutability": "view",
      "type": "function"
    },
    {
      "inputs": [],
      "name": "owner",
      "outputs": [
        {
          "internalType": "address",
          "name": "",
          "type": "address"
        }
      ],
      "stateMutability": "view",
      "type": "function"
    },
    {
      "inputs": [],
      "name": "register",
      "outputs": [],
      "stateMutability": "nonpayable",
      "type": "function"
    },
    {
      "inputs": [],
      "name": "totalQuestions",
      "outputs": [
        {
          "internalType": "uint256",
          "name": "",
          "type": "uint256"
        }
      ],
      "stateMutability": "view",
      "type": "function"
    },
    {
      "inputs": [],
      "name": "totalUsers",
      "outputs": [
        {
          "internalType": "uint256",
          "name": "",
          "type": "uint256"
        }
      ],
      "stateMutability": "view",
      "type": "function"
    },
    {
      "inputs": [
        {
          "internalType": "address",
          "name": "_address",
          "type": "address"
        }
      ],
      "name": "userBalance",
      "outputs": [
        {
          "internalType": "uint256",
          "name": "",
          "type": "uint256"
        }
      ],
      "stateMutability": "view",
      "type": "function"
    },
    {
      "inputs": [
        {
          "internalType": "uint256",
          "name": "questionID",
          "type": "uint256"
        },
        {
          "internalType": "uint256",
          "name": "voteOption",
          "type": "uint256"
        }
      ],
      "name": "vote",
      "outputs": [],
      "stateMutability": "nonpayable",
      "type": "function"
    }
  ],
  "bytecode": "0x60806040523480156200001157600080fd5b5060405162003946380380620039468339810160408190526200003491620001b2565b33620000875760405162461bcd60e51b815260206004820152601760248201527f56616c696420616464726573732072657175697265642e00000000000000000060448201526064015b60405180910390fd5b80336001600160a01b03821614620000f25760405162461bcd60e51b815260206004820152602760248201527f4d6574686f6420657865637574696f6e20616c6c6f77656420746f206f776e65604482015266391037b7363c9760c91b60648201526084016200007e565b600080546001600160a01b0319166001600160a01b0384161781556001556200011a62000122565b50506200020b565b3360009081526004602052604090205415620001815760405162461bcd60e51b815260206004820152601360248201527f416c726561647920726567697374657265642e0000000000000000000000000060448201526064016200007e565b336000908152600460205260408120620f424090556003805460019290620001ab908490620001e4565b9091555050565b600060208284031215620001c557600080fd5b81516001600160a01b0381168114620001dd57600080fd5b9392505050565b600082198211156200020657634e487b7160e01b600052601160045260246000fd5b500190565b61372b806200021b6000396000f3fe608060405260043610620000b55760003560e01c80638f7991b3116200006c5780638f7991b314620001b8578063924a47a514620001cf578063b384abef14620001f4578063b7d8c33f1462000219578063bea5b9141462000240578063bff1f9e1146200025757600080fd5b80630103c92b14620000ba5780631aa3a00814620000f2578063366b19ae146200010c57806348df63241462000135578063649c863814620001695780638da5cb5b146200018e575b600080fd5b348015620000c757600080fd5b50620000df620000d93660046200117d565b6200026e565b6040519081526020015b60405180910390f35b348015620000ff57600080fd5b506200010a620002e4565b005b3480156200011957600080fd5b50620001246200036a565b6040519015158152602001620000e9565b3480156200014257600080fd5b506200015a620001543660046200119d565b620003a2565b604051620000e99190620013a2565b3480156200017657600080fd5b50620000df6200018836600462001403565b62000432565b3480156200019b57600080fd5b506000546040516001600160a01b039091168152602001620000e9565b6200010a620001c9366004620014a5565b620005f6565b348015620001dc57600080fd5b506200010a620001ee366004620014f5565b620006f7565b3480156200020157600080fd5b506200010a62000213366004620014f5565b6200092e565b3480156200022657600080fd5b506200023162000ae0565b604051620000e9919062001518565b3480156200024d57600080fd5b50600154620000df565b3480156200026457600080fd5b50600354620000df565b600033620002995760405162461bcd60e51b815260040162000290906200157e565b60405180910390fd5b33600090815260046020526040902054620002c85760405162461bcd60e51b81526004016200029090620015b5565b506001600160a01b031660009081526004602052604090205490565b3360009081526004602052604090205415620003395760405162461bcd60e51b815260206004820152601360248201527220b63932b0b23c903932b3b4b9ba32b932b21760691b604482015260640162000290565b336000908152600460205260408120620f42409055600380546001929062000363908490620015fb565b9091555050565b6000336200038c5760405162461bcd60e51b815260040162000290906200157e565b5033600090815260046020526040902054151590565b620003ac620010db565b33620003cc5760405162461bcd60e51b815260040162000290906200157e565b816001548110620003f15760405162461bcd60e51b8152600401620002909062001616565b33600090815260046020526040902054620004205760405162461bcd60e51b81526004016200029090620015b5565b6200042b8362000b99565b9392505050565b600033620004545760405162461bcd60e51b815260040162000290906200157e565b33600090815260046020526040902054620004835760405162461bcd60e51b81526004016200029090620015b5565b33600090815260046020526040902054620004e15760405162461bcd60e51b815260206004820152601d60248201527f496e73756669636369656e7420706c6174666f726d20706f696e74732e000000604482015260640162000290565b336000908152600460205260409020546064908110620005155760405162461bcd60e51b8152600401620002909062001644565b600033878787876040516200052a9062001138565b6200053a959493929190620016b2565b604051809103906000f08015801562000557573d6000803e3d6000fd5b50600280546001808201835560009283527f405787fa12a823e0f2b7631cc41b3ba8828b3321ca811111fa75cd3aa3bb5ace90910180546001600160a01b0319166001600160a01b038516179055805492935091829190620005bb908390620015fb565b90915550506001549250503360009081526004602052604081208054839290620005e79084906200177c565b90915550919695505050505050565b33620006165760405162461bcd60e51b815260040162000290906200157e565b33600090815260046020526040902054620006455760405162461bcd60e51b81526004016200029090620015b5565b8260015481106200066a5760405162461bcd60e51b8152600401620002909062001616565b6002848154811062000680576200068062001796565b600091825260209091200154604051630a6fedc760e41b81526001600160a01b039091169063a6fedc7090620006bd9086908690600401620017ac565b600060405180830381600087803b158015620006d857600080fd5b505af1158015620006ed573d6000803e3d6000fd5b5050505050505050565b33620007175760405162461bcd60e51b815260040162000290906200157e565b8160015481106200073c5760405162461bcd60e51b8152600401620002909062001616565b336000908152600460205260409020546200076b5760405162461bcd60e51b81526004016200029090620015b5565b60038210620007e35760405162461bcd60e51b815260206004820152603960248201527f496c6c6567616c20276578747261206f7074696f6e2720617267756d656e742e60448201527f204d757374206265206265747765656e203020616e6420322e00000000000000606482015260840162000290565b81620008665760028381548110620007ff57620007ff62001796565b60009182526020822001546040805163a877db9f60e01b815290516001600160a01b039092169263a877db9f9260048084019382900301818387803b1580156200084857600080fd5b505af11580156200085d573d6000803e3d6000fd5b50505050505050565b8160011415620008cf576002838154811062000886576200088662001796565b60009182526020822001546040805163028e79ef60e21b815290516001600160a01b0390921692630a39e7bc9260048084019382900301818387803b1580156200084857600080fd5b60028381548110620008e557620008e562001796565b600091825260208220015460408051632606a10b60e01b815290516001600160a01b0390921692632606a10b9260048084019382900301818387803b1580156200084857600080fd5b336200094e5760405162461bcd60e51b815260040162000290906200157e565b816001548110620009735760405162461bcd60e51b8152600401620002909062001616565b33600090815260046020526040902054620009a25760405162461bcd60e51b81526004016200029090620015b5565b3360009081526004602052604090205462000a005760405162461bcd60e51b815260206004820152601d60248201527f496e73756669636369656e7420706c6174666f726d20706f696e74732e000000604482015260640162000290565b33600090815260046020526040902054600190811062000a345760405162461bcd60e51b8152600401620002909062001644565b6002848154811062000a4a5762000a4a62001796565b6000918252602090912001546040516319b05f4960e01b8152600481018590526001600160a01b03909116906319b05f4990602401600060405180830381600087803b15801562000a9a57600080fd5b505af115801562000aaf573d6000803e3d6000fd5b5050336000908152600460205260408120805485945090925062000ad59084906200177c565b909155505050505050565b60025460609060009067ffffffffffffffff81111562000b045762000b04620017ca565b60405190808252806020026020018201604052801562000b4157816020015b62000b2d620010db565b81526020019060019003908162000b235790505b50905060005b60025481101562000b935762000b5d8162000b99565b82828151811062000b725762000b7262001796565b6020026020010181905250808062000b8a90620017e0565b91505062000b47565b50919050565b62000ba3620010db565b6040518061012001604052808381526020016002848154811062000bcb5762000bcb62001796565b6000918252602091829020015460408051631127a41d60e31b815290516001600160a01b039092169263893d20e892600480840193829003018186803b15801562000c1557600080fd5b505afa15801562000c2a573d6000803e3d6000fd5b505050506040513d601f19601f8201168201806040525081019062000c509190620017fe565b6001600160a01b031681526020016002848154811062000c745762000c7462001796565b600091825260208220015460408051600162c3e57160e01b0319815290516001600160a01b039092169263ff3c1a8f92600480840193829003018186803b15801562000cbf57600080fd5b505afa15801562000cd4573d6000803e3d6000fd5b505050506040513d6000823e601f3d908101601f1916820160405262000cfe9190810190620018bf565b81526020016002848154811062000d195762000d1962001796565b600091825260208220015460408051631a09254160e01b815290516001600160a01b0390921692631a09254192600480840193829003018186803b15801562000d6157600080fd5b505afa15801562000d76573d6000803e3d6000fd5b505050506040513d6000823e601f3d908101601f1916820160405262000da09190810190620018bf565b81526020016002848154811062000dbb5762000dbb62001796565b600091825260208220015460408051634abd18ab60e01b815290516001600160a01b0390921692634abd18ab92600480840193829003018186803b15801562000e0357600080fd5b505afa15801562000e18573d6000803e3d6000fd5b505050506040513d6000823e601f3d908101601f1916820160405262000e4291908101906200191f565b81526020016002848154811062000e5d5762000e5d62001796565b6000918252602082200154604080516307a84e0360e21b815290516001600160a01b0390921692631ea1380c92600480840193829003018186803b15801562000ea557600080fd5b505afa15801562000eba573d6000803e3d6000fd5b505050506040513d6000823e601f3d908101601f1916820160405262000ee49190810190620019e2565b81526020016002848154811062000eff5762000eff62001796565b9060005260206000200160009054906101000a90046001600160a01b03166001600160a01b0316637ecfc93e6040518163ffffffff1660e01b815260040160606040518083038186803b15801562000f5657600080fd5b505afa15801562000f6b573d6000803e3d6000fd5b505050506040513d601f19601f8201168201806040525081019062000f91919062001a7c565b81526020016002848154811062000fac5762000fac62001796565b6000918252602091829020015460408051635f5300ff60e01b815290516001600160a01b0390921692635f5300ff92600480840193829003018186803b15801562000ff657600080fd5b505afa1580156200100b573d6000803e3d6000fd5b505050506040513d601f19601f8201168201806040525081019062001031919062001b02565b8152602001600284815481106200104c576200104c62001796565b6000918252602091829020015460408051630c90426760e31b815290516001600160a01b0390921692636482133892600480840193829003018186803b1580156200109657600080fd5b505afa158015620010ab573d6000803e3d6000fd5b505050506040513d601f19601f82011682018060405250810190620010d1919062001b1c565b1515905292915050565b6040518061012001604052806000815260200160006001600160a01b03168152602001606081526020016060815260200160608152602001606081526020016200112462001146565b815260006020820181905260409091015290565b611bb58062001b4183390190565b60405180606001604052806003906020820280368337509192915050565b6001600160a01b03811681146200117a57600080fd5b50565b6000602082840312156200119057600080fd5b81356200042b8162001164565b600060208284031215620011b057600080fd5b5035919050565b60005b83811015620011d4578181015183820152602001620011ba565b83811115620011e4576000848401525b50505050565b6000815180845262001204816020860160208601620011b7565b601f01601f19169290920160200192915050565b600082825180855260208086019550808260051b84010181860160005b848110156200126757601f1986840301895262001254838351620011ea565b9884019892509083019060010162001235565b5090979650505050505050565b600081518084526020808501945080840160005b83811015620012a65781518752958201959082019060010162001288565b509495945050505050565b8060005b6003811015620011e4578151845260209384019390910190600101620012b5565b6000610160825184526020830151620012fa60208601826001600160a01b03169052565b5060408301518160408601526200131482860182620011ea565b91505060608301518482036060860152620013308282620011ea565b915050608083015184820360808601526200134c828262001218565b91505060a083015184820360a086015262001368828262001274565b91505060c08301516200137f60c0860182620012b1565b5060e0830151610120850152610100830151801515610140860152509392505050565b6020815260006200042b6020830184620012d6565b60008083601f840112620013ca57600080fd5b50813567ffffffffffffffff811115620013e357600080fd5b602083019150836020828501011115620013fc57600080fd5b9250929050565b600080600080604085870312156200141a57600080fd5b843567ffffffffffffffff808211156200143357600080fd5b6200144188838901620013b7565b909650945060208701359150808211156200145b57600080fd5b818701915087601f8301126200147057600080fd5b8135818111156200148057600080fd5b8860208260051b85010111156200149657600080fd5b95989497505060200194505050565b600080600060408486031215620014bb57600080fd5b83359250602084013567ffffffffffffffff811115620014da57600080fd5b620014e886828701620013b7565b9497909650939450505050565b600080604083850312156200150957600080fd5b50508035926020909101359150565b6000602080830181845280855180835260408601915060408160051b870101925083870160005b828110156200157157603f198886030184526200155e858351620012d6565b945092850192908501906001016200153f565b5092979650505050505050565b60208082526017908201527f56616c696420616464726573732072657175697265642e000000000000000000604082015260600190565b6020808252601690820152752932b3b4b9ba32b932b2103ab9b2b9399037b7363c9760511b604082015260600190565b634e487b7160e01b600052601160045260246000fd5b60008219821115620016115762001611620015e5565b500190565b60208082526014908201527324b73b30b634b21038bab2b9ba34b7b71024a21760611b604082015260600190565b60208082526025908201527f496e73756669636369656e7420616374696f6e20706f696e74732072656d61696040820152643734b7339760d91b606082015260800190565b81835281816020850137506000828201602090810191909152601f909101601f19169091010190565b6001600160a01b038616815260606020808301829052600091620016da908401878962001689565b8381036040850152848152818101600586901b820183018760005b888110156200176b57848303601f190184528135368b9003601e190181126200171d57600080fd5b8a01803567ffffffffffffffff8111156200173757600080fd5b8036038c13156200174757600080fd5b6200175685828a850162001689565b958801959450505090850190600101620016f5565b50909b9a5050505050505050505050565b600082821015620017915762001791620015e5565b500390565b634e487b7160e01b600052603260045260246000fd5b602081526000620017c260208301848662001689565b949350505050565b634e487b7160e01b600052604160045260246000fd5b6000600019821415620017f757620017f7620015e5565b5060010190565b6000602082840312156200181157600080fd5b81516200042b8162001164565b604051601f8201601f1916810167ffffffffffffffff811182821017156200184a576200184a620017ca565b604052919050565b600082601f8301126200186457600080fd5b815167ffffffffffffffff811115620018815762001881620017ca565b62001896601f8201601f19166020016200181e565b818152846020838601011115620018ac57600080fd5b620017c2826020830160208701620011b7565b600060208284031215620018d257600080fd5b815167ffffffffffffffff811115620018ea57600080fd5b620017c28482850162001852565b600067ffffffffffffffff821115620019155762001915620017ca565b5060051b60200190565b600060208083850312156200193357600080fd5b825167ffffffffffffffff808211156200194c57600080fd5b818501915085601f8301126200196157600080fd5b8151620019786200197282620018f8565b6200181e565b81815260059190911b830184019084810190888311156200199857600080fd5b8585015b83811015620019d557805185811115620019b65760008081fd5b620019c68b89838a010162001852565b8452509186019186016200199c565b5098975050505050505050565b60006020808385031215620019f657600080fd5b825167ffffffffffffffff81111562001a0e57600080fd5b8301601f8101851362001a2057600080fd5b805162001a316200197282620018f8565b81815260059190911b8201830190838101908783111562001a5157600080fd5b928401925b8284101562001a715783518252928401929084019062001a56565b979650505050505050565b60006060828403121562001a8f57600080fd5b82601f83011262001a9f57600080fd5b6040516060810181811067ffffffffffffffff8211171562001ac55762001ac5620017ca565b60405280606084018581111562001adb57600080fd5b845b8181101562001af757805183526020928301920162001add565b509195945050505050565b60006020828403121562001b1557600080fd5b5051919050565b60006020828403121562001b2f57600080fd5b815180151581146200042b57600080fdfe60806040523480156200001157600080fd5b5060405162001bb538038062001bb583398101604081905262000034916200027f565b600080546001600160a01b0319166001600160a01b038516179055815162000064906001906020850190620000db565b508060405162000074906200016a565b6200008091906200039a565b604051809103906000f0801580156200009d573d6000803e3d6000fd5b50600380546001600160a01b0319166001600160a01b0392909216919091179055505060006004819055600581905560068190556008555062000455565b828054620000e99062000418565b90600052602060002090601f0160209004810192826200010d576000855562000158565b82601f106200012857805160ff191683800117855562000158565b8280016001018555821562000158579182015b82811115620001585782518255916020019190600101906200013b565b506200016692915062000178565b5090565b6109bd80620011f883390190565b5b8082111562000166576000815560010162000179565b634e487b7160e01b600052604160045260246000fd5b604051601f8201601f191681016001600160401b0381118282101715620001d057620001d06200018f565b604052919050565b60005b83811015620001f5578181015183820152602001620001db565b8381111562000205576000848401525b50505050565b600082601f8301126200021d57600080fd5b81516001600160401b038111156200023957620002396200018f565b6200024e601f8201601f1916602001620001a5565b8181528460208386010111156200026457600080fd5b62000277826020830160208701620001d8565b949350505050565b6000806000606084860312156200029557600080fd5b83516001600160a01b0381168114620002ad57600080fd5b602085810151919450906001600160401b0380821115620002cd57600080fd5b620002db888389016200020b565b94506040870151915080821115620002f257600080fd5b818701915087601f8301126200030757600080fd5b8151818111156200031c576200031c6200018f565b8060051b6200032d858201620001a5565b918252838101850191858101908b8411156200034857600080fd5b86860192505b838310156200038957825185811115620003685760008081fd5b620003788d89838a01016200020b565b83525091860191908601906200034e565b809750505050505050509250925092565b6000602080830181845280855180835260408601915060408160051b870101925083870160005b828110156200040b57878503603f1901845281518051808752620003eb818989018a8501620001d8565b601f01601f191695909501860194509285019290850190600101620003c1565b5092979650505050505050565b600181811c908216806200042d57607f821691505b602082108114156200044f57634e487b7160e01b600052602260045260246000fd5b50919050565b610d9380620004656000396000f3fe608060405234801561001057600080fd5b50600436106101165760003560e01c80636eb83689116100a2578063a877db9f11610071578063a877db9f1461021b578063b0f41e1314610223578063d1730f1f1461022b578063e0619c831461023e578063ff3c1a8f1461024657600080fd5b80636eb83689146101c55780637ecfc93e146101d8578063893d20e8146101ed578063a6fedc701461020857600080fd5b80631ea1380c116100e95780631ea1380c146101685780632606a10b1461017d5780634abd18ab146101855780635f5300ff1461019a57806364821338146101a257600080fd5b80630a39e7bc1461011b578063185c6f841461012557806319b05f49146101405780631a09254114610153575b600080fd5b61012361024e565b005b61012d610324565b6040519081526020015b60405180910390f35b61012361014e36600461086e565b610342565b61015b610441565b60405161013791906108e3565b6101706104d6565b60405161013791906108fd565b61012361055c565b61018d6105c8565b6040516101379190610941565b60085461012d565b3360009081526007602052604090205460ff166040519015158152602001610137565b6101236101d33660046109a3565b610649565b6101e061065a565b6040516101379190610a15565b6000546040516001600160a01b039091168152602001610137565b6101236102163660046109a3565b610695565b6101236106a1565b61012d61070d565b61012d61023936600461086e565b610718565b61012d61079b565b61015b6107a5565b3360009081526007602052604090205460ff16156102875760405162461bcd60e51b815260040161027e90610a46565b60405180910390fd5b60095460ff16156102aa5760405162461bcd60e51b815260040161027e90610a7d565b6009805460ff191660019081179091556004815b600381106102ce576102ce610ac8565b0160008282546102de9190610ade565b9091555050336000908152600760205260408120805460ff191660019081179091556008805491929091610313908490610ade565b90915550506009805460ff19169055565b6000600460025b6003811061033b5761033b610ac8565b0154905090565b3360009081526007602052604090205460ff16156103725760405162461bcd60e51b815260040161027e90610a46565b60095460ff16156103955760405162461bcd60e51b815260040161027e90610a7d565b6009805460ff191660011790556003546040516319b05f4960e01b8152600481018390526001600160a01b03909116906319b05f4990602401600060405180830381600087803b1580156103e857600080fd5b505af11580156103fc573d6000803e3d6000fd5b5050336000908152600760205260408120805460ff1916600190811790915560088054919450925061042f908490610ade565b90915550506009805460ff1916905550565b60606000600201805461045390610b04565b80601f016020809104026020016040519081016040528092919081815260200182805461047f90610b04565b80156104cc5780601f106104a1576101008083540402835291602001916104cc565b820191906000526020600020905b8154815290600101906020018083116104af57829003601f168201915b5050505050905090565b600354604080516307a84e0360e21b815290516060926001600160a01b031691631ea1380c916004808301926000929190829003018186803b15801561051b57600080fd5b505afa15801561052f573d6000803e3d6000fd5b505050506040513d6000823e601f3d908101601f191682016040526105579190810190610baa565b905090565b3360009081526007602052604090205460ff161561058c5760405162461bcd60e51b815260040161027e90610a46565b60095460ff16156105af5760405162461bcd60e51b815260040161027e90610a7d565b6009805460ff19166001908117909155600460026102be565b60035460408051634abd18ab60e01b815290516060926001600160a01b031691634abd18ab916004808301926000929190829003018186803b15801561060d57600080fd5b505afa158015610621573d6000803e3d6000fd5b505050506040513d6000823e601f3d908101601f191682016040526105579190810190610c40565b610655600183836107b7565b505050565b61066261083b565b6040805160608101918290529060049060039082845b815481526020019060010190808311610678575050505050905090565b610655600283836107b7565b3360009081526007602052604090205460ff16156106d15760405162461bcd60e51b815260040161027e90610a46565b60095460ff16156106f45760405162461bcd60e51b815260040161027e90610a7d565b6009805460ff19166001908117909155600460006102be565b60006004600161032b565b60035460405163d1730f1f60e01b8152600481018390526000916001600160a01b03169063d1730f1f9060240160206040518083038186803b15801561075d57600080fd5b505afa158015610771573d6000803e3d6000fd5b505050506040513d601f19601f820116820180604052508101906107959190610d44565b92915050565b600060048161032b565b60606000600101805461045390610b04565b8280546107c390610b04565b90600052602060002090601f0160209004810192826107e5576000855561082b565b82601f106107fe5782800160ff1982351617855561082b565b8280016001018555821561082b579182015b8281111561082b578235825591602001919060010190610810565b50610837929150610859565b5090565b60405180606001604052806003906020820280368337509192915050565b5b80821115610837576000815560010161085a565b60006020828403121561088057600080fd5b5035919050565b60005b838110156108a257818101518382015260200161088a565b838111156108b1576000848401525b50505050565b600081518084526108cf816020860160208601610887565b601f01601f19169290920160200192915050565b6020815260006108f660208301846108b7565b9392505050565b6020808252825182820181905260009190848201906040850190845b8181101561093557835183529284019291840191600101610919565b50909695505050505050565b6000602080830181845280855180835260408601915060408160051b870101925083870160005b8281101561099657603f198886030184526109848583516108b7565b94509285019290850190600101610968565b5092979650505050505050565b600080602083850312156109b657600080fd5b823567ffffffffffffffff808211156109ce57600080fd5b818501915085601f8301126109e257600080fd5b8135818111156109f157600080fd5b866020828501011115610a0357600080fd5b60209290920196919550909350505050565b60608101818360005b6003811015610a3d578151835260209283019290910190600101610a1e565b50505092915050565b60208082526018908201527f416c726561647920706572666f726d656420616374696f6e0000000000000000604082015260600190565b6020808252602b908201527f4e6f207265656e7472616e6379207768696c6520746865206d6574686f64206960408201526a7320657865637574696e6760a81b606082015260800190565b634e487b7160e01b600052603260045260246000fd5b60008219821115610aff57634e487b7160e01b600052601160045260246000fd5b500190565b600181811c90821680610b1857607f821691505b60208210811415610b3957634e487b7160e01b600052602260045260246000fd5b50919050565b634e487b7160e01b600052604160045260246000fd5b604051601f8201601f1916810167ffffffffffffffff81118282101715610b7e57610b7e610b3f565b604052919050565b600067ffffffffffffffff821115610ba057610ba0610b3f565b5060051b60200190565b60006020808385031215610bbd57600080fd5b825167ffffffffffffffff811115610bd457600080fd5b8301601f81018513610be557600080fd5b8051610bf8610bf382610b86565b610b55565b81815260059190911b82018301908381019087831115610c1757600080fd5b928401925b82841015610c3557835182529284019290840190610c1c565b979650505050505050565b60006020808385031215610c5357600080fd5b825167ffffffffffffffff80821115610c6b57600080fd5b8185019150601f8681840112610c8057600080fd5b8251610c8e610bf382610b86565b81815260059190911b84018501908581019089831115610cad57600080fd5b8686015b83811015610d3657805186811115610cc95760008081fd5b8701603f81018c13610cdb5760008081fd5b88810151604088821115610cf157610cf1610b3f565b610d02828901601f19168c01610b55565b8281528e82848601011115610d175760008081fd5b610d26838d8301848701610887565b8652505050918701918701610cb1565b509998505050505050505050565b600060208284031215610d5657600080fd5b505191905056fea26469706673582212207dc3b89ac4856b2174aa324088c17ed1ad218a9cfd8665a0e45bce2cc2b420c064736f6c6343000809003360806040523480156200001157600080fd5b50604051620009bd380380620009bd8339810160408190526200003491620001cf565b60005b81518160ff161015620000d8576001828260ff16815181106200005e576200005e6200031b565b60209081029190910181015182546001810184556000938452928290208151620000929491909101929190910190620000e0565b50600080546001810182558180527f290decd9548b62a8d60345a988386fc84ba6bc95484008f6362f93160ef3e563015580620000cf8162000331565b91505062000037565b50506200039d565b828054620000ee9062000360565b90600052602060002090601f0160209004810192826200011257600085556200015d565b82601f106200012d57805160ff19168380011785556200015d565b828001600101855582156200015d579182015b828111156200015d57825182559160200191906001019062000140565b506200016b9291506200016f565b5090565b5b808211156200016b576000815560010162000170565b634e487b7160e01b600052604160045260246000fd5b604051601f8201601f191681016001600160401b0381118282101715620001c757620001c762000186565b604052919050565b60006020808385031215620001e357600080fd5b82516001600160401b0380821115620001fb57600080fd5b8185019150601f86818401126200021157600080fd5b82518281111562000226576200022662000186565b8060051b620002378682016200019c565b918252848101860191868101908a8411156200025257600080fd5b87870192505b838310156200030d57825186811115620002725760008081fd5b8701603f81018c13620002855760008081fd5b88810151878111156200029c576200029c62000186565b620002af818801601f19168b016200019c565b81815260408e81848601011115620002c75760008081fd5b60005b83811015620002e7578481018201518382018e01528c01620002ca565b83811115620002f95760008d85850101525b505084525050918701919087019062000258565b9a9950505050505050505050565b634e487b7160e01b600052603260045260246000fd5b600060ff821660ff8114156200035757634e487b7160e01b600052601160045260246000fd5b60010192915050565b600181811c908216806200037557607f821691505b602082108114156200039757634e487b7160e01b600052602260045260246000fd5b50919050565b61061080620003ad6000396000f3fe608060405234801561001057600080fd5b50600436106100575760003560e01c806319b05f491461005c5780631ea1380c146100715780634abd18ab1461008f578063538faa8c146100a4578063d1730f1f146100b7575b600080fd5b61006f61006a3660046103a8565b6100d8565b005b61007961013b565b60405161008691906103c1565b60405180910390f35b610097610193565b6040516100869190610405565b61006f6100b23660046104a0565b61026c565b6100ca6100c53660046103a8565b6102c2565b604051908152602001610086565b600154819081106101045760405162461bcd60e51b81526004016100fb9061051c565b60405180910390fd5b60016000838154811061011957610119610569565b906000526020600020016000828254610132919061057f565b90915550505050565b6060600080548060200260200160405190810160405280929190818152602001828054801561018957602002820191906000526020600020905b815481526020019060010190808311610175575b5050505050905090565b60606001805480602002602001604051908101604052809291908181526020016000905b828210156102635783829060005260206000200180546101d6906105a5565b80601f0160208091040260200160405190810160405280929190818152602001828054610202906105a5565b801561024f5780601f106102245761010080835404028352916020019161024f565b820191906000526020600020905b81548152906001019060200180831161023257829003601f168201915b5050505050815260200190600101906101b7565b50505050905090565b6001548390811061028f5760405162461bcd60e51b81526004016100fb9061051c565b8282600186815481106102a4576102a4610569565b9060005260206000200191906102bb92919061030f565b5050505050565b600154600090829081106102e85760405162461bcd60e51b81526004016100fb9061051c565b600083815481106102fb576102fb610569565b906000526020600020015491505b50919050565b82805461031b906105a5565b90600052602060002090601f01602090048101928261033d5760008555610383565b82601f106103565782800160ff19823516178555610383565b82800160010185558215610383579182015b82811115610383578235825591602001919060010190610368565b5061038f929150610393565b5090565b5b8082111561038f5760008155600101610394565b6000602082840312156103ba57600080fd5b5035919050565b6020808252825182820181905260009190848201906040850190845b818110156103f9578351835292840192918401916001016103dd565b50909695505050505050565b6000602080830181845280855180835260408601915060408160051b87010192508387016000805b8381101561049257888603603f1901855282518051808852835b81811015610462578281018a01518982018b01528901610447565b8181111561047257848a838b0101525b50601f01601f19169690960187019550938601939186019160010161042d565b509398975050505050505050565b6000806000604084860312156104b557600080fd5b83359250602084013567ffffffffffffffff808211156104d457600080fd5b818601915086601f8301126104e857600080fd5b8135818111156104f757600080fd5b87602082850101111561050957600080fd5b6020830194508093505050509250925092565b6020808252602d908201527f566f74696e6720656c656d656e74206f757473696465206f662074686520717560408201526c195cdd1a5bdb9cc8189bdd5b99609a1b606082015260800190565b634e487b7160e01b600052603260045260246000fd5b600082198211156105a057634e487b7160e01b600052601160045260246000fd5b500190565b600181811c908216806105b957607f821691505b6020821081141561030957634e487b7160e01b600052602260045260246000fdfea2646970667358221220ec63e45d78ec66b732bc9bd20b3652d4ccfdc2e4160def64555fe0bd2ae5953364736f6c63430008090033a2646970667358221220aaf74d81ffb6ee890665d47663f573f958aa5ff6453d81b4643cd6587ce4f0d464736f6c63430008090033",
  "linkReferences": {},
  "deployedLinkReferences": {}
}