{
  "_format": "hh-sol-artifact-1",
  "contractName": "MainPlatform",
  "sourceName": "contracts/MainPlatform.sol",
  "abi": [
    {
      "inputs": [
        {
          "internalType": "address",
          "name": "_owner",
          "type": "address"
        }
      ],
      "stateMutability": "nonpayable",
      "type": "constructor"
    },
    {
      "inputs": [
        {
          "internalType": "string",
          "name": "title",
          "type": "string"
        },
        {
          "internalType": "string[]",
          "name": "labels",
          "type": "string[]"
        }
      ],
      "name": "addQuestion",
      "outputs": [
        {
          "internalType": "uint256",
          "name": "",
          "type": "uint256"
        }
      ],
      "stateMutability": "nonpayable",
      "type": "function"
    },
    {
      "inputs": [
        {
          "internalType": "address",
          "name": "_address",
          "type": "address"
        }
      ],
      "name": "balanceOf",
      "outputs": [
        {
          "internalType": "uint256",
          "name": "",
          "type": "uint256"
        }
      ],
      "stateMutability": "view",
      "type": "function"
    },
    {
      "inputs": [],
      "name": "getAllQuestions",
      "outputs": [
        {
          "components": [
            {
              "internalType": "uint256",
              "name": "id",
              "type": "uint256"
            },
            {
              "components": [
                {
                  "internalType": "address",
                  "name": "owner",
                  "type": "address"
                },
                {
                  "internalType": "string",
                  "name": "title",
                  "type": "string"
                },
                {
                  "internalType": "string",
                  "name": "description",
                  "type": "string"
                },
                {
                  "internalType": "string[]",
                  "name": "labels",
                  "type": "string[]"
                },
                {
                  "internalType": "uint256[]",
                  "name": "scores",
                  "type": "uint256[]"
                },
                {
                  "internalType": "uint256[3]",
                  "name": "extras",
                  "type": "uint256[3]"
                }
              ],
              "internalType": "struct QuestionMeta",
              "name": "question",
              "type": "tuple"
            },
            {
              "internalType": "uint256",
              "name": "totalVoters",
              "type": "uint256"
            },
            {
              "internalType": "bool",
              "name": "hasVoted",
              "type": "bool"
            }
          ],
          "internalType": "struct QuestionInfoOutput[]",
          "name": "",
          "type": "tuple[]"
        }
      ],
      "stateMutability": "view",
      "type": "function"
    },
    {
      "inputs": [
        {
          "internalType": "uint256",
          "name": "questionID",
          "type": "uint256"
        }
      ],
      "name": "getQuestionInfo",
      "outputs": [
        {
          "components": [
            {
              "internalType": "uint256",
              "name": "id",
              "type": "uint256"
            },
            {
              "components": [
                {
                  "internalType": "address",
                  "name": "owner",
                  "type": "address"
                },
                {
                  "internalType": "string",
                  "name": "title",
                  "type": "string"
                },
                {
                  "internalType": "string",
                  "name": "description",
                  "type": "string"
                },
                {
                  "internalType": "string[]",
                  "name": "labels",
                  "type": "string[]"
                },
                {
                  "internalType": "uint256[]",
                  "name": "scores",
                  "type": "uint256[]"
                },
                {
                  "internalType": "uint256[3]",
                  "name": "extras",
                  "type": "uint256[3]"
                }
              ],
              "internalType": "struct QuestionMeta",
              "name": "question",
              "type": "tuple"
            },
            {
              "internalType": "uint256",
              "name": "totalVoters",
              "type": "uint256"
            },
            {
              "internalType": "bool",
              "name": "hasVoted",
              "type": "bool"
            }
          ],
          "internalType": "struct QuestionInfoOutput",
          "name": "",
          "type": "tuple"
        }
      ],
      "stateMutability": "view",
      "type": "function"
    },
    {
      "inputs": [],
      "name": "isRegisteredUser",
      "outputs": [
        {
          "internalType": "bool",
          "name": "",
          "type": "bool"
        }
      ],
      "stateMutability": "view",
      "type": "function"
    },
    {
      "inputs": [],
      "name": "owner",
      "outputs": [
        {
          "internalType": "address",
          "name": "",
          "type": "address"
        }
      ],
      "stateMutability": "view",
      "type": "function"
    },
    {
      "inputs": [],
      "name": "register",
      "outputs": [],
      "stateMutability": "nonpayable",
      "type": "function"
    },
    {
      "inputs": [],
      "name": "totalQuestions",
      "outputs": [
        {
          "internalType": "uint256",
          "name": "",
          "type": "uint256"
        }
      ],
      "stateMutability": "view",
      "type": "function"
    },
    {
      "inputs": [],
      "name": "totalUsers",
      "outputs": [
        {
          "internalType": "uint256",
          "name": "",
          "type": "uint256"
        }
      ],
      "stateMutability": "view",
      "type": "function"
    },
    {
      "inputs": [
        {
          "internalType": "uint256",
          "name": "questionID",
          "type": "uint256"
        },
        {
          "internalType": "uint256",
          "name": "voteOption",
          "type": "uint256"
        }
      ],
      "name": "vote",
      "outputs": [],
      "stateMutability": "nonpayable",
      "type": "function"
    },
    {
      "inputs": [
        {
          "internalType": "uint256",
          "name": "questionID",
          "type": "uint256"
        },
        {
          "internalType": "enum EXTRAS",
          "name": "extraOption",
          "type": "uint8"
        }
      ],
      "name": "voteExtra",
      "outputs": [],
      "stateMutability": "nonpayable",
      "type": "function"
    }
  ],
  "bytecode": "0x60806040526008805460ff191690553480156200001b57600080fd5b5060405162002aa638038062002aa68339810160408190526200003e9162000330565b33620000915760405162461bcd60e51b815260206004820152601760248201527f56616c696420616464726573732072657175697265642e00000000000000000060448201526064015b60405180910390fd5b336001600160a01b03821614620001115760405162461bcd60e51b815260206004820152603b60248201527f4d6574686f6420657865637574696f6e206f6e6c7920616c6c6f77656420627960448201527f20746865206f776e6572206f662074686520636f6e74726163742e0000000000606482015260840162000088565b600080546001600160a01b0319166001600160a01b0383161790556040516200013a9062000323565b604051809103906000f08015801562000157573d6000803e3d6000fd5b50600180546001600160a01b0319166001600160a01b03929092169190911790556000600255620001876200018e565b50620003a3565b3360009081526005602052604090205415620001ed5760405162461bcd60e51b815260206004820152601360248201527f416c726561647920726567697374657265642e00000000000000000000000000604482015260640162000088565b60085460ff16156200025b5760405162461bcd60e51b815260206004820152603060248201527f4d6574686f642061726561647920657865637574696e672e204e6f2072652d6560448201526f373a3930b731bc9030b63637bbb2b21760811b606482015260840162000088565b6008805460ff191660019081179091555460408051635b698ad160e11b815290516001600160a01b039092169163b6d315a291600480820192602092909190829003018186803b158015620002af57600080fd5b505afa158015620002c4573d6000803e3d6000fd5b505050506040513d601f19601f82011682018060405250810190620002ea919062000362565b336000908152600560205260408120919091556004805460019290620003129084906200037c565b90915550506008805460ff19169055565b60be80620029e883390190565b6000602082840312156200034357600080fd5b81516001600160a01b03811681146200035b57600080fd5b9392505050565b6000602082840312156200037557600080fd5b5051919050565b600082198211156200039e57634e487b7160e01b600052601160045260246000fd5b500190565b61263580620003b36000396000f3fe60806040523480156200001157600080fd5b5060043610620000b75760003560e01c806370a08231116200007a57806370a0823114620001515780638da5cb5b1462000168578063b384abef1462000184578063bea5b914146200019b578063bff1f9e114620001a4578063ec315a0214620001ad57600080fd5b80631aa3a00814620000bc5780632af9338e14620000c8578063366b19ae14620000ea57806348df63241462000105578063649c8638146200012b575b600080fd5b620000c6620001c4565b005b620000d26200030b565b604051620000e1919062000fee565b60405180910390f35b620000f462000412565b6040519015158152602001620000e1565b6200011c6200011636600462001054565b6200044a565b604051620000e191906200106e565b620001426200013c3660046200108a565b620005b6565b604051908152602001620000e1565b620001426200016236600462001171565b620007d5565b6000546040516001600160a01b039091168152602001620000e1565b620000c66200019536600462001191565b62000846565b60025462000142565b60045462000142565b620000c6620001be366004620011b4565b62000b42565b33600090815260056020526040902054156200021d5760405162461bcd60e51b815260206004820152601360248201527220b63932b0b23c903932b3b4b9ba32b932b21760691b60448201526064015b60405180910390fd5b60085460ff1615620002435760405162461bcd60e51b81526004016200021490620011ea565b6008805460ff191660019081179091555460408051635b698ad160e11b815290516001600160a01b039092169163b6d315a291600480820192602092909190829003018186803b1580156200029757600080fd5b505afa158015620002ac573d6000803e3d6000fd5b505050506040513d601f19601f82011682018060405250810190620002d291906200123a565b336000908152600560205260408120919091556004805460019290620002fa9084906200126a565b90915550506008805460ff19169055565b6060336200032d5760405162461bcd60e51b8152600401620002149062001285565b336000908152600560205260409020546200035c5760405162461bcd60e51b81526004016200021490620012bc565b60035460009067ffffffffffffffff8111156200037d576200037d620012ec565b604051908082528060200260200182016040528015620003ba57816020015b620003a662000d6a565b8152602001906001900390816200039c5790505b50905060005b6003548110156200040c57620003d6816200044a565b828281518110620003eb57620003eb62001302565b60200260200101819052508080620004039062001318565b915050620003c0565b50905090565b600033620004345760405162461bcd60e51b8152600401620002149062001285565b5033600090815260056020526040902054151590565b6200045462000d6a565b33620004745760405162461bcd60e51b8152600401620002149062001285565b816002548110620004995760405162461bcd60e51b8152600401620002149062001336565b33600090815260056020526040902054620004c85760405162461bcd60e51b81526004016200021490620012bc565b6000604051806080016040528085815260200160038681548110620004f157620004f162001302565b600091825260208220015460408051633737245160e01b815290516001600160a01b0390921692633737245192600480840193829003018186803b1580156200053957600080fd5b505afa1580156200054e573d6000803e3d6000fd5b505050506040513d6000823e601f3d908101601f19168201604052620005789190810190620015df565b81526000868152600660209081526040808320548285015288835260078252808320338452909152908190205460ff16151591015292505050919050565b600033620005d85760405162461bcd60e51b8152600401620002149062001285565b33600090815260056020526040902054620006075760405162461bcd60e51b81526004016200021490620012bc565b33600090815260056020526040902054620006365760405162461bcd60e51b81526004016200021490620016f1565b600160009054906101000a90046001600160a01b03166001600160a01b0316633eb833626040518163ffffffff1660e01b815260040160206040518083038186803b1580156200068557600080fd5b505afa1580156200069a573d6000803e3d6000fd5b505050506040513d601f19601f82011682018060405250810190620006c091906200123a565b336000908152600560205260409020548110620006f15760405162461bcd60e51b8152600401620002149062001728565b60003387878787604051620007069062000d9a565b6200071695949392919062001796565b604051809103906000f08015801562000733573d6000803e3d6000fd5b50600380546001808201835560009283527fc2575a0e9e593c00f959f8c92f12db2869c3395a3b0502d05e2516446f71f85b90910180546001600160a01b0319166001600160a01b0385161790556002805493945090929091906200079a9084906200126a565b90915550506002549250503360009081526005602052604081208054839290620007c690849062001860565b90915550919695505050505050565b600033620007f75760405162461bcd60e51b8152600401620002149062001285565b33600090815260056020526040902054620008265760405162461bcd60e51b81526004016200021490620012bc565b506001600160a01b0381166000908152600560205260409020545b919050565b33620008665760405162461bcd60e51b8152600401620002149062001285565b33600090815260056020526040902054620008955760405162461bcd60e51b81526004016200021490620012bc565b33600090815260056020526040902054620008c45760405162461bcd60e51b81526004016200021490620016f1565b816002548110620008e95760405162461bcd60e51b8152600401620002149062001336565b600160009054906101000a90046001600160a01b03166001600160a01b031663fe71b8ba6040518163ffffffff1660e01b815260040160206040518083038186803b1580156200093857600080fd5b505afa1580156200094d573d6000803e3d6000fd5b505050506040513d601f19601f820116820180604052508101906200097391906200123a565b336000908152600560205260409020548110620009a45760405162461bcd60e51b8152600401620002149062001728565b60085460ff1615620009ca5760405162461bcd60e51b81526004016200021490620011ea565b6008805460ff191660011790556000848152600760209081526040808320338452909152902054849060ff16801562000a465760405162461bcd60e51b815260206004820152601e60248201527f416c726561647920706572666f726d656420766f7465206f7074696f6e730000604482015260640162000214565b6003868154811062000a5c5762000a5c62001302565b6000918252602090912001546040516319b05f4960e01b8152600481018790526001600160a01b03909116906319b05f4990602401600060405180830381600087803b15801562000aac57600080fd5b505af115801562000ac1573d6000803e3d6000fd5b505050600087815260066020526040812080546001935090919062000ae89084906200126a565b90915550505060009081526007602090815260408083203384528252808320805460ff1990811660011790915560088054909116905560059091528120805483929062000b3790849062001860565b909155505050505050565b3362000b625760405162461bcd60e51b8152600401620002149062001285565b3360009081526005602052604090205462000b915760405162461bcd60e51b81526004016200021490620012bc565b3360009081526005602052604090205462000bc05760405162461bcd60e51b81526004016200021490620016f1565b81600254811062000be55760405162461bcd60e51b8152600401620002149062001336565b60085460ff161562000c0b5760405162461bcd60e51b81526004016200021490620011ea565b6008805460ff191660011790556000838152600760209081526040808320338452909152902054839060ff16801562000c875760405162461bcd60e51b815260206004820152601e60248201527f416c726561647920706572666f726d656420766f7465206f7074696f6e730000604482015260640162000214565b6003858154811062000c9d5762000c9d62001302565b600091825260209091200154604051631e17bce960e11b81526001600160a01b0390911690633c2f79d29062000cd89087906004016200187a565b600060405180830381600087803b15801562000cf357600080fd5b505af115801562000d08573d6000803e3d6000fd5b505050600086815260066020526040812080546001935090919062000d2f9084906200126a565b90915550505060009081526007602090815260408083203384529091529020805460ff19908116600117909155600880549091169055505050565b60405180608001604052806000815260200162000d8662000da8565b815260006020820181905260409091015290565b610d5c80620018a483390190565b6040518060c0016040528060006001600160a01b031681526020016060815260200160608152602001606081526020016060815260200162000de962000dee565b905290565b60405180606001604052806003906020820280368337509192915050565b60005b8381101562000e2957818101518382015260200162000e0f565b8381111562000e39576000848401525b50505050565b6000815180845262000e5981602086016020860162000e0c565b601f01601f19169290920160200192915050565b600081518084526020808501945080840160005b8381101562000e9f5781518752958201959082019060010162000e81565b509495945050505050565b8060005b600381101562000e3957815184526020938401939091019060010162000eae565b80518252600060208083015160808286015260018060a01b038151166080860152818101516101008060a088015262000f0d61018088018362000e3f565b91506040830151607f19808985030160c08a015262000f2d848362000e3f565b60608601518a8203830160e08c015280518083529195508701925086850190600581901b8601880160005b8281101562000f8a57601f1988830301845262000f7782875162000e3f565b958a0195938a0193915060010162000f58565b5060808801519850838c820301868d015262000fa7818a62000e6d565b98505050505050505060a0810151905062000fc761012086018262000eaa565b5060408301516040850152606083015162000fe6606086018215159052565b509392505050565b6000602080830181845280855180835260408601915060408160051b870101925083870160005b828110156200104757603f198886030184526200103485835162000ecf565b9450928501929085019060010162001015565b5092979650505050505050565b6000602082840312156200106757600080fd5b5035919050565b60208152600062001083602083018462000ecf565b9392505050565b60008060008060408587031215620010a157600080fd5b843567ffffffffffffffff80821115620010ba57600080fd5b818701915087601f830112620010cf57600080fd5b813581811115620010df57600080fd5b886020828501011115620010f257600080fd5b6020928301965094509086013590808211156200110e57600080fd5b818701915087601f8301126200112357600080fd5b8135818111156200113357600080fd5b8860208260051b85010111156200114957600080fd5b95989497505060200194505050565b6001600160a01b03811681146200116e57600080fd5b50565b6000602082840312156200118457600080fd5b8135620010838162001158565b60008060408385031215620011a557600080fd5b50508035926020909101359150565b60008060408385031215620011c857600080fd5b82359150602083013560038110620011df57600080fd5b809150509250929050565b60208082526030908201527f4d6574686f642061726561647920657865637574696e672e204e6f2072652d6560408201526f373a3930b731bc9030b63637bbb2b21760811b606082015260800190565b6000602082840312156200124d57600080fd5b5051919050565b634e487b7160e01b600052601160045260246000fd5b6000821982111562001280576200128062001254565b500190565b60208082526017908201527f56616c696420616464726573732072657175697265642e000000000000000000604082015260600190565b6020808252601690820152752932b3b4b9ba32b932b2103ab9b2b9399037b7363c9760511b604082015260600190565b634e487b7160e01b600052604160045260246000fd5b634e487b7160e01b600052603260045260246000fd5b60006000198214156200132f576200132f62001254565b5060010190565b60208082526014908201527324b73b30b634b21038bab2b9ba34b7b71024a21760611b604082015260600190565b60405160c0810167ffffffffffffffff811182821017156200138a576200138a620012ec565b60405290565b604051601f8201601f1916810167ffffffffffffffff81118282101715620013bc57620013bc620012ec565b604052919050565b8051620008418162001158565b600082601f830112620013e357600080fd5b815167ffffffffffffffff811115620014005762001400620012ec565b62001415601f8201601f191660200162001390565b8181528460208386010111156200142b57600080fd5b6200143e82602083016020870162000e0c565b949350505050565b600067ffffffffffffffff821115620014635762001463620012ec565b5060051b60200190565b600082601f8301126200147f57600080fd5b8151602062001498620014928362001446565b62001390565b82815260059290921b84018101918181019086841115620014b857600080fd5b8286015b84811015620014fd57805167ffffffffffffffff811115620014de5760008081fd5b620014ee8986838b0101620013d1565b845250918301918301620014bc565b509695505050505050565b600082601f8301126200151a57600080fd5b815160206200152d620014928362001446565b82815260059290921b840181019181810190868411156200154d57600080fd5b8286015b84811015620014fd578051835291830191830162001551565b600082601f8301126200157c57600080fd5b6040516060810181811067ffffffffffffffff82111715620015a257620015a2620012ec565b604052806060840185811115620015b857600080fd5b845b81811015620015d4578051835260209283019201620015ba565b509195945050505050565b600060208284031215620015f257600080fd5b815167ffffffffffffffff808211156200160b57600080fd5b9083019061010082860312156200162157600080fd5b6200162b62001364565b6200163683620013c4565b81526020830151828111156200164b57600080fd5b6200165987828601620013d1565b6020830152506040830151828111156200167257600080fd5b6200168087828601620013d1565b6040830152506060830151828111156200169957600080fd5b620016a7878286016200146d565b606083015250608083015182811115620016c057600080fd5b620016ce8782860162001508565b608083015250620016e38660a085016200156a565b60a082015295945050505050565b6020808252601d908201527f496e73756669636369656e7420706c6174666f726d20706f696e74732e000000604082015260600190565b60208082526025908201527f496e73756669636369656e7420616374696f6e20706f696e74732072656d61696040820152643734b7339760d91b606082015260800190565b81835281816020850137506000828201602090810191909152601f909101601f19169091010190565b6001600160a01b038616815260606020808301829052600091620017be90840187896200176d565b8381036040850152848152818101600586901b820183018760005b888110156200184f57848303601f190184528135368b9003601e190181126200180157600080fd5b8a01803567ffffffffffffffff8111156200181b57600080fd5b8036038c13156200182b57600080fd5b6200183a85828a85016200176d565b958801959450505090850190600101620017d9565b50909b9a5050505050505050505050565b60008282101562001875576200187562001254565b500390565b60208101600383106200189d57634e487b7160e01b600052602160045260246000fd5b9190529056fe60806040523480156200001157600080fd5b5060405162000d5c38038062000d5c833981016040819052620000349162000299565b600080546001600160a01b0319166001600160a01b03851617905581516200006490600190602085019062000115565b5060005b81518160ff1610156200010b576003828260ff16815181106200008f576200008f620003b4565b60209081029190910181015182546001810184556000938452928290208151620000c3949190910192919091019062000115565b506004805460018101825560009182527f8a35acfbc15ff81a39ae7d344fd709f28e8600b4aa8c65c6b64bfe7fe36bd19b0155806200010281620003ca565b91505062000068565b5050505062000436565b8280546200012390620003f9565b90600052602060002090601f01602090048101928262000147576000855562000192565b82601f106200016257805160ff191683800117855562000192565b8280016001018555821562000192579182015b828111156200019257825182559160200191906001019062000175565b50620001a0929150620001a4565b5090565b5b80821115620001a05760008155600101620001a5565b634e487b7160e01b600052604160045260246000fd5b604051601f8201601f191681016001600160401b0381118282101715620001fc57620001fc620001bb565b604052919050565b600082601f8301126200021657600080fd5b81516001600160401b03811115620002325762000232620001bb565b602062000248601f8301601f19168201620001d1565b82815285828487010111156200025d57600080fd5b60005b838110156200027d57858101830151828201840152820162000260565b838111156200028f5760008385840101525b5095945050505050565b600080600060608486031215620002af57600080fd5b83516001600160a01b0381168114620002c757600080fd5b602085810151919450906001600160401b0380821115620002e757600080fd5b620002f58883890162000204565b945060408701519150808211156200030c57600080fd5b818701915087601f8301126200032157600080fd5b815181811115620003365762000336620001bb565b8060051b62000347858201620001d1565b918252838101850191858101908b8411156200036257600080fd5b86860192505b83831015620003a357825185811115620003825760008081fd5b620003928d89838a010162000204565b835250918601919086019062000368565b809750505050505050509250925092565b634e487b7160e01b600052603260045260246000fd5b600060ff821660ff811415620003f057634e487b7160e01b600052601160045260246000fd5b60010192915050565b600181811c908216806200040e57607f821691505b602082108114156200043057634e487b7160e01b600052602260045260246000fd5b50919050565b61091680620004466000396000f3fe608060405234801561001057600080fd5b506004361061004c5760003560e01c806319b05f491461005157806337372451146100665780633c2f79d214610084578063a6fedc7014610097575b600080fd5b61006461005f36600461060a565b6100aa565b005b61006e61014f565b60405161007b91906106d4565b60405180910390f35b6100646100923660046107b9565b6103fd565b6100646100a53660046107e1565b6104fe565b600354819081106101185760405162461bcd60e51b815260206004820152602d60248201527f4e6f6e206578697374696e67206f7074696f6e2e20547279207769746820646960448201526c66666572656e742076616c756560981b60648201526084015b60405180910390fd5b60016004838154811061012d5761012d610853565b9060005260206000200160008282546101469190610869565b90915550505050565b61015761050f565b6040805160c081019091526000546001600160a01b03168152600180546020830191906101839061088f565b80601f01602080910402602001604051908101604052809291908181526020018280546101af9061088f565b80156101fc5780601f106101d1576101008083540402835291602001916101fc565b820191906000526020600020905b8154815290600101906020018083116101df57829003601f168201915b50505050508152602001600280546102139061088f565b80601f016020809104026020016040519081016040528092919081815260200182805461023f9061088f565b801561028c5780601f106102615761010080835404028352916020019161028c565b820191906000526020600020905b81548152906001019060200180831161026f57829003601f168201915b505050505081526020016003805480602002602001604051908101604052809291908181526020016000905b828210156103645783829060005260206000200180546102d79061088f565b80601f01602080910402602001604051908101604052809291908181526020018280546103039061088f565b80156103505780601f1061032557610100808354040283529160200191610350565b820191906000526020600020905b81548152906001019060200180831161033357829003601f168201915b5050505050815260200190600101906102b8565b50505050815260200160048054806020026020016040519081016040528092919081815260200182805480156103b957602002820191906000526020600020905b8154815260200190600101908083116103a5575b50505091835250506040805160608101918290526020909201919060059060039082845b8154815260200190600101908083116103dd575050505050815250905090565b80600281111561040f5761040f6108ca565b600381106104745760405162461bcd60e51b815260206004820152602c60248201527f506172616d65746572206f757473696465206f662072616e6765206f6620766160448201526b3634b21037b83a34b7b7399760a11b606482015260840161010f565b6000826002811115610488576104886108ca565b14156104c0576001600560005b600381106104a5576104a5610853565b0160008282546104b59190610869565b909155506104fa9050565b60018260028111156104d4576104d46108ca565b14156104e4576001600581610495565b6001600560020160008282546101469190610869565b5050565b61050a60028383610553565b505050565b6040518060c0016040528060006001600160a01b031681526020016060815260200160608152602001606081526020016060815260200161054e6105d7565b905290565b82805461055f9061088f565b90600052602060002090601f01602090048101928261058157600085556105c7565b82601f1061059a5782800160ff198235161785556105c7565b828001600101855582156105c7579182015b828111156105c75782358255916020019190600101906105ac565b506105d39291506105f5565b5090565b60405180606001604052806003906020820280368337509192915050565b5b808211156105d357600081556001016105f6565b60006020828403121561061c57600080fd5b5035919050565b6000815180845260005b818110156106495760208185018101518683018201520161062d565b8181111561065b576000602083870101525b50601f01601f19169290920160200192915050565b600081518084526020808501945080840160005b838110156106a057815187529582019590820190600101610684565b509495945050505050565b8060005b60038110156106ce5781518452602093840193909101906001016106af565b50505050565b602080825282516001600160a01b03168282015282810151610100604084015260009190610706610120850182610623565b90506040850151601f19808684030160608701526107248383610623565b60608801518782038301608089015280518083529194508501925084840190600581901b8501860160005b8281101561077b5784878303018452610769828751610623565b9588019593880193915060010161074f565b5060808a01519650838982030160a08a01526107978188610670565b965050505050505060a08401516107b160c08501826106ab565b509392505050565b6000602082840312156107cb57600080fd5b8135600381106107da57600080fd5b9392505050565b600080602083850312156107f457600080fd5b823567ffffffffffffffff8082111561080c57600080fd5b818501915085601f83011261082057600080fd5b81358181111561082f57600080fd5b86602082850101111561084157600080fd5b60209290920196919550909350505050565b634e487b7160e01b600052603260045260246000fd5b6000821982111561088a57634e487b7160e01b600052601160045260246000fd5b500190565b600181811c908216806108a357607f821691505b602082108114156108c457634e487b7160e01b600052602260045260246000fd5b50919050565b634e487b7160e01b600052602160045260246000fdfea2646970667358221220ebc33e01ee94eb21ab496892fecebc2325499b85793e635766dba6b55130250364736f6c63430008090033a26469706673582212204f20229dc29abf58f6c506d30d448b274bad4b055a599778dbc623c99c64a5de64736f6c634300080900336080604052348015600f57600080fd5b5060a08061001e6000396000f3fe6080604052348015600f57600080fd5b5060043610603c5760003560e01c80633eb83362146041578063b6d315a214605a578063fe71b8ba146063575b600080fd5b6048606481565b60405190815260200160405180910390f35b6048620f424081565b604860018156fea2646970667358221220984d8f1a3a787fecc9d488da23e1e89560d5ec294f41f8f6db133b539fe07daf64736f6c63430008090033",
  "linkReferences": {},
  "deployedLinkReferences": {}
}